S01300002E2F74696E7962617369632E73726563EE
S11376004CD97E4C88764CCC764C7B7F4C857F4C19
S1137610AA7F5F1880000486C3900586C391C26068
S1137620B1C2A0006071777377E777147842780C61
S113763078AE79517D4E7D89790B7BAE79AE79AE8A
S113764079CC7CD07C997CAA7CF87C707960795068
S11376507C617C5E7C717CF67BDC781579AE792468
S11376607AB679C678CE78927AB078AE79AE79B7B0
S11376707A5E7D5C7D167BB9764679CC762A7DC0B0
S11376807C20415420807F7DA90085208522A90289
S113769085218523A001B122AA49FF9122D1220884
S11376A08A9122E622D002E623A523C976D006A534
S11376B022C900F00328F0DE88D8A5206D1676854F
S11376C0249865218525989120C89120A52285C6F6
S11376D08526A52385C7852720967AAD8676852AB3
S11376E0AD8776852BA98085C1A93085C0A2008687
S11376F0BE86C2CA9AD82008792001774CF57683D1
S113770065C930B07BC908900C0AAABD227648BD71
S1137710217648084065C1AAB1C148B50091C16845
S113772095006020967AA921200C76A52A38ED864A
S113773076AAA52BED877620AF79A5BEF012A98194
S1137740852AA976852B20B078A628A52920AF798B
S1137750A907200C7620967AA52685C6A52785C775
S11377604CDB76A27CE4C190BAA6C1E6C1E6C1189E
S113777060C6BDA5BDF0ACA5BC852AA5BD852B60A2
S1137780C940B043482008796D867685BC6848298D
S1137790076D877685BD682908D0DCA5BCA62A8537
S11377A02A86BCA5BDA62B852B86BDA5C6E9018569
S11377B0C6B002C6C7C524A5C7E52590AAA5BC9135
S11377C0C6C8A5BD91C660484A4A4A4A290EAA6855
S11377D0C960291FB00209E018F007652A85BC9822
S11377E0652B85BD4C0B77A52C85B8A52D85B920B7
S11377F03478202378512AAA2008798AF0F10AF0F3
S113780012A5B8852CA5B9852D4C7377203478C979
S11378100DD0F660203478C95BB0EEC94190EA0A15
S1137820209679A000B12CE62CD002E62DC90D18C3
S113783060202378B12CC920F0F7C93A181002C986
S1137840306020347890C284BC84BDA5BCA6BD063B
S1137850BC26BD06BC26BD1865BC85BC8A65BD06B4
S1137860BC2A85BD202378290F65BC85BC9865BDDD
S113787085BD203478B0D44C8F79200B7BA5BC0512
S1137880BDF048A520852CA521852D207C79F012FA
S1137890A528C5BCA529E5BDB008202378D0FB4C9C
S11378A08B78A52845BCD004A52945BD6020B578B2
S11378B020087910F8E6BF30034C0C76C6BF60C9C7
S11378C022F0FB20B578202378D0F44C2377A9202C
S11378D020B578A5BF298730E5D0F360A27B206569
S11378E077E6C1E6C1E6C138B503F5009500B504F5
S11378F0F501500449800901300AD0041500F00252
S1137900560256025602900CA000B12AE62AD00272
S1137910E62B090060A5BEF028202378D0FB207C4C
S113792079F01B205B79200F76B009A5C4852AA5C0
S1137930C5852B60AD8676852AAD8776852B4C234D
S11379407785BF4C5877A520852CA521852D207CD3
S113795079F0EBA52A85C4A52B85C5A90185BE6050
S1137960207A78F0BEA5BC8528A5BD85294C23774F
S1137970200C7D20097D208378D0EA60202378853F
S1137980282023788529052860200B7B208F79A562
S1137990BD209679A5BCA6C1CA950086C1E4C0D015
S11379A00D4C2377A6C1E08010F7B500E6C16085D1
S11379B0BD86BC4CC779A6C1B501100820507CA96E
S11379C02D20B578200B7BA91F85B885BAA92A85F7
S11379D0B985BBA6BCA4BD38E6B88AE910AA98E963
S11379E027A8B0F4C6B98A69E8AA986903A890F4EC
S11379F08A38E6BAE964B0F98810F6C6BB690A9019
S1137A00FA093085BCA92085BDA2FB86C3B5BD0596
S1137A10BDC920F009A03084BD05BD20B578A6C33A
S1137A20E8D0E860A52D48A52C48A520852CA521E3
S1137A30852DA524A625206A7AF003206A7AA52C30
S1137A4038E5B6A52DE5B7B042207C79F03DA628EF
S1137A50A52920AF79A92020B578200F76B02C2055
S1137A602378D0F320927A4C3E7A85B6E6B6D001DC
S1137A70E886B7A4C1C080F018207A78A52CA62D7A
S1137A8038E902B001CA852C4C577D68852C68857D
S1137A902D60A5BF30FBA90D200C76AD1476297F8F
S1137AA085BFF00720737DC6BFD0F9A90A4C707D4D
S1137AB0AC157684BFB00BA930852C85C0842D20ED
S1137AC08F7945808580200976A000A6C0297FF0A3
S1137AD0F1C97FF0EDC913F0DAC90AF0D3CD1376FA
S1137AE0F009CD1276D00AE030D016A62C84BFA9B6
S1137AF00DE4C13008A90720B5784CC27A9500E896
S1137B00E8CA86C0C90DD0BA20927A20A47985BC6F
S1137B1020A47985BD6020E57C207A7808207C7AD1
S1137B2085B886B9A5BC85B6A5BD85B7A20028D001
S1137B300B207C79CACACA202378D0FA84288429E5
S1137B4020E57CA90DD12CF011E8E8E8E8C8D12C97
S1137B50D0FAA5B68528A5B78529A5B885BCA5B949
S1137B6085BD18A0008AF06E1029652E85B8A52F52
S1137B70E90085B9B12E91B8A62EE424D006A52F2C
S1137B80C525F04AE8862ED002E62FE6B8D0E5E611
S1137B90B9D0E1652485B8852E98652585B9852FEA
S1137BA0A52EE5C6A52FE5C79005C62A4C2377B1B7
S1137BB024912EA624D002C625C624A62ED002C601
S1137BC02FCA862EE4BCD0E7A62FE4BDD0E1A5B829
S1137BD08524A5B98525A5280529F017A52891BCD4
S1137BE0C8A52991BCC884B620237808A4B691BC42
S1137BF028D0F24CDB76206377B5032980F002A904
S1137C00FF85BC85BD4875029502684875039503D8
S1137C1068550185BB100320527CA011B5001501E5
S1137C20D0034C237738A5BCF50048A5BDF5014821
S1137C3045BD300A6885BD6885BC384C417C6868A0
S1137C40183602360326BC26BD88D0D9A5BB100D34
S1137C50A6C13898F500950098F50195016020506B
S1137C607C206377B50075029502B5017503950311
S1137C7060206377A010B50285BCB50385BD1602EC
S1137C80360326BC26BD900D18B50275009502B5C5
S1137C90037501950388D0E66020A479AAB500B4E1
S1137CA001C6C1A6C194004C9679A27D206577B522
S1137CB00148B5004820A479AA6895006895016038
S1137CC0200C7DA5BC852AA5BD852B60A22CD002E5
S1137CD0A22EB500C980B00DB501D009A52C852E02
S1137CE0A52D852F60A52CA42E842C852EA52DA42E
S1137CF02F842D852FA00060A52885BCA52985BDCE
S1137D0020AB77A5C68526A5C7852760B1C685BCE7
S1137D1020177DB1C685BDE6C6D002E6C7A522C53B
S1137D20C6A523E5C7B0E44C237720337D85BC98F2
S1137D304C9179200B7BA5BC85B6200B7BA5BD851A
S1137D40B7A4BC200B7BA6B7A5B6186CBC00205109
S1137D507D2008794C9679862DE00060A00284BCD1
S1137D60A02984BDA000B1BCC908D0034C1A7C6012
S1137D70200C76A9FF2C14763002A9004C0C762432
S1137D803E912710E159C52A5610112C8B4C45D42D
S1137D90A080BD30BCE0131D9447CF8854CF30BCC5
S1137DA0E0101116805355C230BCE014169050D226
S1137DB083494ED4E57188BBE11D8FA221586F839E
S1137DC0AC225583BA2493E0231D30BC204891494A
S1137DD0C630BC313430BC84544845CE1C1D380DEB
S1137DE09A494E5055D4A010E7243F209127E159D9
S1137DF081AC30BC131182AC4DE01D895245545501
S1137E0052CEE0151D85454EC4E02D984C4953D4FF
S1137E10EC24000000000A801F2493231D30BCE1E1
S1137E205080AC59855255CE380A86434C4541D2D0
S1137E302B845245CD1DA080BD381485AD30D31799
S1137E406481AB30D385AB30D3185A85AD30D319A8
S1137E50542F30E285AA30E21A5A85AF30E21B541F
S1137E602F98524EC40A8080120A09291A0A1A85C8
S1137E701813098012010B313061720B04020305DF
S1137E80031B1A190B09060A00001C172F8F5553E0
S1137E90D280A830BC312A312A80A92E2FA2122FD9
S1137EA0C12F80A830BC80A92F83AC38BC0B2F8095
S1137EB0A8522F84BD09022F8EBC84BD09932F8440
S1137EC0BE09052F09912F80BE84BD09062F84BCED
S1137ED009952F09042F000000205C7FA200206C6C
S1137EE07F207B7FC943D0034C8876C957D0034C8D
S1137EF0CC76A251206C7F4CE17E4F70656E204C95
S1137F006963656E7365204D6F6E69746F722C20A2
S1137F1062792042696C6C204F274E65696C6C2035
S1137F2056302E322E320D0A0A54494E59204241FF
S1137F30534943202D20436F707972696768742C0C
S1137F4020546F6D205069746D616E0D0A0A426F82
S1137F506F742028432F57293F2007FFA219A90D2A
S1137F6020857FA90A20857FCAD0FA60BDFA7EC920
S1137F70FFF00720857FE84C6C7F60AD11D010FBCB
S1137F80AD10D0297F85FEC9FFF01EC900F01AC9C3
S1137F9091F016C993F012C980F00EC90AF00A2CA8
S1137FA012D030FBA5FE8D12D06085FE18AD11D025
S10C7FB0100438AD10D0A5FE60E8
S903760086
